{
  "_format": "hh-sol-artifact-1",
  "contractName": "SupplyChain",
  "sourceName": "contracts/Lock.sol",
  "abi": [
    {
      "inputs": [
        {
          "internalType": "string",
          "name": "_productId",
          "type": "string"
        },
        {
          "internalType": "string",
          "name": "_destination",
          "type": "string"
        },
        {
          "internalType": "uint256",
          "name": "_count",
          "type": "uint256"
        },
        {
          "internalType": "string",
          "name": "ret_id",
          "type": "string"
        }
      ],
      "name": "addDestinationbyManufacturer",
      "outputs": [],
      "stateMutability": "nonpayable",
      "type": "function"
    },
    {
      "inputs": [
        {
          "internalType": "uint256",
          "name": "",
          "type": "uint256"
        }
      ],
      "name": "allProducts",
      "outputs": [
        {
          "internalType": "address",
          "name": "creator",
          "type": "address"
        },
        {
          "internalType": "string",
          "name": "productName",
          "type": "string"
        },
        {
          "internalType": "string",
          "name": "productId",
          "type": "string"
        },
        {
          "internalType": "uint256",
          "name": "date",
          "type": "uint256"
        },
        {
          "internalType": "string",
          "name": "source",
          "type": "string"
        },
        {
          "internalType": "uint256",
          "name": "totalCount",
          "type": "uint256"
        },
        {
          "internalType": "uint256",
          "name": "copyTotalCount",
          "type": "uint256"
        }
      ],
      "stateMutability": "view",
      "type": "function"
    },
    {
      "inputs": [
        {
          "internalType": "string",
          "name": "_productId",
          "type": "string"
        }
      ],
      "name": "getProductCopyofTotalCount",
      "outputs": [
        {
          "internalType": "uint256",
          "name": "",
          "type": "uint256"
        }
      ],
      "stateMutability": "view",
      "type": "function"
    },
    {
      "inputs": [
        {
          "internalType": "string",
          "name": "_productId",
          "type": "string"
        }
      ],
      "name": "getProductCount",
      "outputs": [
        {
          "internalType": "uint256",
          "name": "",
          "type": "uint256"
        }
      ],
      "stateMutability": "view",
      "type": "function"
    },
    {
      "inputs": [
        {
          "internalType": "string",
          "name": "_productId",
          "type": "string"
        }
      ],
      "name": "getProductCreator",
      "outputs": [
        {
          "internalType": "address",
          "name": "",
          "type": "address"
        }
      ],
      "stateMutability": "view",
      "type": "function"
    },
    {
      "inputs": [
        {
          "internalType": "string",
          "name": "_productId",
          "type": "string"
        }
      ],
      "name": "getProductDate",
      "outputs": [
        {
          "internalType": "uint256",
          "name": "",
          "type": "uint256"
        }
      ],
      "stateMutability": "view",
      "type": "function"
    },
    {
      "inputs": [
        {
          "internalType": "string",
          "name": "_productId",
          "type": "string"
        }
      ],
      "name": "getProductDestinantions",
      "outputs": [
        {
          "internalType": "string[]",
          "name": "",
          "type": "string[]"
        }
      ],
      "stateMutability": "view",
      "type": "function"
    },
    {
      "inputs": [
        {
          "internalType": "string",
          "name": "_productId",
          "type": "string"
        }
      ],
      "name": "getProductName",
      "outputs": [
        {
          "internalType": "string",
          "name": "",
          "type": "string"
        }
      ],
      "stateMutability": "view",
      "type": "function"
    },
    {
      "inputs": [
        {
          "internalType": "string",
          "name": "_productId",
          "type": "string"
        }
      ],
      "name": "getProductReceived",
      "outputs": [
        {
          "internalType": "string[]",
          "name": "",
          "type": "string[]"
        }
      ],
      "stateMutability": "view",
      "type": "function"
    },
    {
      "inputs": [
        {
          "internalType": "string",
          "name": "_productId",
          "type": "string"
        }
      ],
      "name": "getProductRetailers",
      "outputs": [
        {
          "internalType": "address[]",
          "name": "",
          "type": "address[]"
        }
      ],
      "stateMutability": "view",
      "type": "function"
    },
    {
      "inputs": [
        {
          "internalType": "string",
          "name": "_productId",
          "type": "string"
        }
      ],
      "name": "getProductSetCount",
      "outputs": [
        {
          "internalType": "uint256[]",
          "name": "",
          "type": "uint256[]"
        }
      ],
      "stateMutability": "view",
      "type": "function"
    },
    {
      "inputs": [
        {
          "internalType": "string",
          "name": "_productId",
          "type": "string"
        }
      ],
      "name": "getProductSource",
      "outputs": [
        {
          "internalType": "string",
          "name": "",
          "type": "string"
        }
      ],
      "stateMutability": "view",
      "type": "function"
    },
    {
      "inputs": [
        {
          "internalType": "string",
          "name": "_productId",
          "type": "string"
        }
      ],
      "name": "getRetailerId",
      "outputs": [
        {
          "internalType": "string[]",
          "name": "",
          "type": "string[]"
        }
      ],
      "stateMutability": "view",
      "type": "function"
    },
    {
      "inputs": [
        {
          "internalType": "string",
          "name": "_productId",
          "type": "string"
        }
      ],
      "name": "getValidatedRetailerId",
      "outputs": [
        {
          "internalType": "string[]",
          "name": "",
          "type": "string[]"
        }
      ],
      "stateMutability": "view",
      "type": "function"
    },
    {
      "inputs": [
        {
          "internalType": "string",
          "name": "_id",
          "type": "string"
        },
        {
          "internalType": "string",
          "name": "_name",
          "type": "string"
        },
        {
          "internalType": "string",
          "name": "_source",
          "type": "string"
        },
        {
          "internalType": "uint256",
          "name": "_totalCount",
          "type": "uint256"
        }
      ],
      "name": "newItem",
      "outputs": [
        {
          "internalType": "bool",
          "name": "",
          "type": "bool"
        }
      ],
      "stateMutability": "nonpayable",
      "type": "function"
    },
    {
      "inputs": [],
      "name": "prod",
      "outputs": [
        {
          "internalType": "address",
          "name": "creator",
          "type": "address"
        },
        {
          "internalType": "string",
          "name": "productName",
          "type": "string"
        },
        {
          "internalType": "string",
          "name": "productId",
          "type": "string"
        },
        {
          "internalType": "uint256",
          "name": "date",
          "type": "uint256"
        },
        {
          "internalType": "string",
          "name": "source",
          "type": "string"
        },
        {
          "internalType": "uint256",
          "name": "totalCount",
          "type": "uint256"
        },
        {
          "internalType": "uint256",
          "name": "copyTotalCount",
          "type": "uint256"
        }
      ],
      "stateMutability": "view",
      "type": "function"
    },
    {
      "inputs": [
        {
          "internalType": "string",
          "name": "_productId",
          "type": "string"
        },
        {
          "internalType": "string",
          "name": "_location",
          "type": "string"
        },
        {
          "internalType": "uint256",
          "name": "_count",
          "type": "uint256"
        },
        {
          "internalType": "string",
          "name": "retID",
          "type": "string"
        }
      ],
      "name": "updateProduct",
      "outputs": [],
      "stateMutability": "nonpayable",
      "type": "function"
    }
  ],
  "bytecode": "0x60806040526000600e556000600f557fffffffffffffffffffffffffffffffffffffffffffffffffffffffffffffffff6010557fffffffffffffffffffffffffffffffffffffffffffffffffffffffffffffffff60115534801561006257600080fd5b50612c74806100726000396000f3fe608060405234801561001057600080fd5b506004361061010b5760003560e01c8063a098c211116100a2578063b8e707aa11610071578063b8e707aa14610330578063bd0997f81461034c578063cfaaef561461037c578063e1d5922a146103b2578063eee82493146103e25761010b565b8063a098c21114610284578063a32121ca146102b4578063ac9e6a41146102e4578063af062a0c146103145761010b565b80633e865692116100de5780633e865692146101c45780636680a992146101f4578063748fe794146102245780637ad1e6c7146102545761010b565b80630302c688146101105780631472dfa8146101345780631dd78325146101645780633414808014610194575b600080fd5b610118610412565b60405161012b9796959493929190611fcc565b60405180910390f35b61014e60048036038101906101499190612199565b6105fa565b60405161015b91906121e2565b60405180910390f35b61017e60048036038101906101799190612199565b610707565b60405161018b91906121fd565b60405180910390f35b6101ae60048036038101906101a99190612199565b6107f4565b6040516101bb9190612324565b60405180910390f35b6101de60048036038101906101d99190612199565b6109ad565b6040516101eb9190612346565b60405180910390f35b61020e60048036038101906102099190612199565b610b1f565b60405161021b9190612426565b60405180910390f35b61023e60048036038101906102399190612199565b610c57565b60405161024b9190612506565b60405180910390f35b61026e60048036038101906102699190612199565b610dc5565b60405161027b9190612324565b60405180910390f35b61029e60048036038101906102999190612199565b610f7e565b6040516102ab91906121fd565b60405180910390f35b6102ce60048036038101906102c99190612199565b61106b565b6040516102db91906121fd565b60405180910390f35b6102fe60048036038101906102f99190612199565b611158565b60405161030b9190612324565b60405180910390f35b61032e60048036038101906103299190612554565b611311565b005b61034a60048036038101906103459190612554565b611709565b005b61036660048036038101906103619190612199565b6118ee565b6040516103739190612346565b60405180910390f35b6103966004803603810190610391919061260f565b611a60565b6040516103a99796959493929190611fcc565b60405180910390f35b6103cc60048036038101906103c7919061263c565b611c5a565b6040516103d99190612712565b60405180910390f35b6103fc60048036038101906103f79190612199565b611d29565b6040516104099190612324565b60405180910390f35b60008060000160009054906101000a900473ffffffffffffffffffffffffffffffffffffffff16908060020180546104499061275c565b80601f01602080910402602001604051908101604052809291908181526020018280546104759061275c565b80156104c25780601f10610497576101008083540402835291602001916104c2565b820191906000526020600020905b8154815290600101906020018083116104a557829003601f168201915b5050505050908060030180546104d79061275c565b80601f01602080910402602001604051908101604052809291908181526020018280546105039061275c565b80156105505780601f1061052557610100808354040283529160200191610550565b820191906000526020600020905b81548152906001019060200180831161053357829003601f168201915b50505050509080600401549080600501805461056b9061275c565b80601f01602080910402602001604051908101604052809291908181526020018280546105979061275c565b80156105e45780601f106105b9576101008083540402835291602001916105e4565b820191906000526020600020905b8154815290600101906020018083116105c757829003601f168201915b5050505050908060080154908060090154905087565b600080600090505b600e548110156106c6578260405160200161061d91906127c9565b60405160208183030381529060405280519060200120600d60008381526020019081526020016000206003016040516020016106599190612878565b60405160208183030381529060405280519060200120036106b357600d600082815260200190815260200160002060000160009054906101000a900473ffffffffffffffffffffffffffffffffffffffff16915050610702565b80806106be906128be565b915050610602565b506040517f08c379a00000000000000000000000000000000000000000000000000000000081526004016106f990612952565b60405180910390fd5b919050565b600080600090505b600e548110156107b3578260405160200161072a91906127c9565b60405160208183030381529060405280519060200120600d60008381526020019081526020016000206003016040516020016107669190612878565b60405160208183030381529060405280519060200120036107a057600d6000828152602001908152602001600020600801549150506107ef565b80806107ab906128be565b91505061070f565b506040517f08c379a00000000000000000000000000000000000000000000000000000000081526004016107e690612952565b60405180910390fd5b919050565b606060005b600e5481101561096c578260405160200161081491906127c9565b60405160208183030381529060405280519060200120600d60008381526020019081526020016000206003016040516020016108509190612878565b604051602081830303815290604052805190602001200361095957600d6000828152602001908152602001600020600b01805480602002602001604051908101604052809291908181526020016000905b8282101561094d5783829060005260206000200180546108c09061275c565b80601f01602080910402602001604051908101604052809291908181526020018280546108ec9061275c565b80156109395780601f1061090e57610100808354040283529160200191610939565b820191906000526020600020905b81548152906001019060200180831161091c57829003601f168201915b5050505050815260200190600101906108a1565b505050509150506109a8565b8080610964906128be565b9150506107f9565b506040517f08c379a000000000000000000000000000000000000000000000000000000000815260040161099f90612952565b60405180910390fd5b919050565b606060005b600e54811015610ade57826040516020016109cd91906127c9565b60405160208183030381529060405280519060200120600d6000838152602001908152602001600020600301604051602001610a099190612878565b6040516020818303038152906040528051906020012003610acb57600d60008281526020019081526020016000206002018054610a459061275c565b80601f0160208091040260200160405190810160405280929190818152602001828054610a719061275c565b8015610abe5780601f10610a9357610100808354040283529160200191610abe565b820191906000526020600020905b815481529060010190602001808311610aa157829003601f168201915b5050505050915050610b1a565b8080610ad6906128be565b9150506109b2565b506040517f08c379a0000000000000000000000000000000000000000000000000000000008152600401610b1190612952565b60405180910390fd5b919050565b606060005b600e54811015610c165782604051602001610b3f91906127c9565b60405160208183030381529060405280519060200120600d6000838152602001908152602001600020600301604051602001610b7b9190612878565b6040516020818303038152906040528051906020012003610c0357600d6000828152602001908152602001600020600c01805480602002602001604051908101604052809291908181526020018280548015610bf657602002820191906000526020600020905b815481526020019060010190808311610be2575b5050505050915050610c52565b8080610c0e906128be565b915050610b24565b506040517f08c379a0000000000000000000000000000000000000000000000000000000008152600401610c4990612952565b60405180910390fd5b919050565b606060005b600e54811015610d845782604051602001610c7791906127c9565b60405160208183030381529060405280519060200120600d6000838152602001908152602001600020600301604051602001610cb39190612878565b6040516020818303038152906040528051906020012003610d7157600d6000828152602001908152602001600020600101805480602002602001604051908101604052809291908181526020018280548015610d6457602002820191906000526020600020905b8160009054906101000a900473ffffffffffffffffffffffffffffffffffffffff1673ffffffffffffffffffffffffffffffffffffffff1681526020019060010190808311610d1a575b5050505050915050610dc0565b8080610d7c906128be565b915050610c5c565b506040517f08c379a0000000000000000000000000000000000000000000000000000000008152600401610db790612952565b60405180910390fd5b919050565b606060005b600e54811015610f3d5782604051602001610de591906127c9565b60405160208183030381529060405280519060200120600d6000838152602001908152602001600020600301604051602001610e219190612878565b6040516020818303038152906040528051906020012003610f2a57600d6000828152602001908152602001600020600601805480602002602001604051908101604052809291908181526020016000905b82821015610f1e578382906000526020600020018054610e919061275c565b80601f0160208091040260200160405190810160405280929190818152602001828054610ebd9061275c565b8015610f0a5780601f10610edf57610100808354040283529160200191610f0a565b820191906000526020600020905b815481529060010190602001808311610eed57829003601f168201915b505050505081526020019060010190610e72565b50505050915050610f79565b8080610f35906128be565b915050610dca565b506040517f08c379a0000000000000000000000000000000000000000000000000000000008152600401610f7090612952565b60405180910390fd5b919050565b600080600090505b600e5481101561102a5782604051602001610fa191906127c9565b60405160208183030381529060405280519060200120600d6000838152602001908152602001600020600301604051602001610fdd9190612878565b604051602081830303815290604052805190602001200361101757600d600082815260200190815260200160002060040154915050611066565b8080611022906128be565b915050610f86565b506040517f08c379a000000000000000000000000000000000000000000000000000000000815260040161105d90612952565b60405180910390fd5b919050565b600080600090505b600e54811015611117578260405160200161108e91906127c9565b60405160208183030381529060405280519060200120600d60008381526020019081526020016000206003016040516020016110ca9190612878565b604051602081830303815290604052805190602001200361110457600d600082815260200190815260200160002060090154915050611153565b808061110f906128be565b915050611073565b506040517f08c379a000000000000000000000000000000000000000000000000000000000815260040161114a90612952565b60405180910390fd5b919050565b606060005b600e548110156112d0578260405160200161117891906127c9565b60405160208183030381529060405280519060200120600d60008381526020019081526020016000206003016040516020016111b49190612878565b60405160208183030381529060405280519060200120036112bd57600d6000828152602001908152602001600020600701805480602002602001604051908101604052809291908181526020016000905b828210156112b15783829060005260206000200180546112249061275c565b80601f01602080910402602001604051908101604052809291908181526020018280546112509061275c565b801561129d5780601f106112725761010080835404028352916020019161129d565b820191906000526020600020905b81548152906001019060200180831161128057829003601f168201915b505050505081526020019060010190611205565b5050505091505061130c565b80806112c8906128be565b91505061115d565b506040517f08c379a000000000000000000000000000000000000000000000000000000000815260040161130390612952565b60405180910390fd5b919050565b60005b600e548110156113a5578460405160200161132f91906127c9565b60405160208183030381529060405280519060200120600d600083815260200190815260200160002060030160405160200161136b9190612878565b604051602081830303815290604052805190602001200361139257806010819055506113a5565b808061139d906128be565b915050611314565b50600e5460105411156113b757600080fd5b60005b600d600060105481526020019081526020016000206006018054905081101561148257836040516020016113ee91906127c9565b60405160208183030381529060405280519060200120600d60006010548152602001908152602001600020600601828154811061142e5761142d612972565b5b906000526020600020016040516020016114489190612878565b604051602081830303815290604052805190602001200361146f5780601181905550611482565b808061147a906128be565b9150506113ba565b508060405160200161149491906127c9565b60405160208183030381529060405280519060200120600d60006010548152602001908152602001600020600a01601154815481106114d6576114d5612972565b5b906000526020600020016040516020016114f09190612878565b604051602081830303815290604052805190602001201461151057600080fd5b600d60006010548152602001908152602001600020600601805490506011541061153957600080fd5b81600d60006010548152602001908152602001600020600c016011548154811061156657611565612972565b5b90600052602060002001541461157b57600080fd5b600d60006010548152602001908152602001600020600101339080600181540180825580915050600190039060005260206000200160009091909190916101000a81548173ffffffffffffffffffffffffffffffffffffffff021916908373ffffffffffffffffffffffffffffffffffffffff160217905550600d600060105481526020019081526020016000206007018390806001815401808255809150506001900390600052602060002001600090919091909150908161163e9190612b38565b50600d60006010548152602001908152602001600020600b01819080600181540180825580915050600190039060005260206000200160009091909190915090816116899190612b38565b50600d60006010548152602001908152602001600020600101339080600181540180825580915050600190039060005260206000200160009091909190916101000a81548173ffffffffffffffffffffffffffffffffffffffff021916908373ffffffffffffffffffffffffffffffffffffffff16021790555050505050565b60005b600e5481101561179d578460405160200161172791906127c9565b60405160208183030381529060405280519060200120600d60008381526020019081526020016000206003016040516020016117639190612878565b604051602081830303815290604052805190602001200361178a578060108190555061179d565b8080611795906128be565b91505061170c565b50600e54601054106117ae57600080fd5b600d60006010548152602001908152602001600020600901548211156117d357600080fd5b600d600060105481526020019081526020016000206006018390806001815401808255809150506001900390600052602060002001600090919091909150908161181d9190612b38565b50600d60006010548152602001908152602001600020600a01819080600181540180825580915050600190039060005260206000200160009091909190915090816118689190612b38565b50600d60006010548152602001908152602001600020600c0182908060018154018082558091505060019003906000526020600020016000909190919091505581600d60006010548152602001908152602001600020600901546118cc9190612c0a565b600d600060105481526020019081526020016000206009018190555050505050565b606060005b600e54811015611a1f578260405160200161190e91906127c9565b60405160208183030381529060405280519060200120600d600083815260200190815260200160002060030160405160200161194a9190612878565b6040516020818303038152906040528051906020012003611a0c57600d600082815260200190815260200160002060050180546119869061275c565b80601f01602080910402602001604051908101604052809291908181526020018280546119b29061275c565b80156119ff5780601f106119d4576101008083540402835291602001916119ff565b820191906000526020600020905b8154815290600101906020018083116119e257829003601f168201915b5050505050915050611a5b565b8080611a17906128be565b9150506118f3565b506040517f08c379a0000000000000000000000000000000000000000000000000000000008152600401611a5290612952565b60405180910390fd5b919050565b600d6020528060005260406000206000915090508060000160009054906101000a900473ffffffffffffffffffffffffffffffffffffffff1690806002018054611aa99061275c565b80601f0160208091040260200160405190810160405280929190818152602001828054611ad59061275c565b8015611b225780601f10611af757610100808354040283529160200191611b22565b820191906000526020600020905b815481529060010190602001808311611b0557829003601f168201915b505050505090806003018054611b379061275c565b80601f0160208091040260200160405190810160405280929190818152602001828054611b639061275c565b8015611bb05780601f10611b8557610100808354040283529160200191611bb0565b820191906000526020600020905b815481529060010190602001808311611b9357829003601f168201915b505050505090806004015490806005018054611bcb9061275c565b80601f0160208091040260200160405190810160405280929190818152602001828054611bf79061275c565b8015611c445780601f10611c1957610100808354040283529160200191611c44565b820191906000526020600020905b815481529060010190602001808311611c2757829003601f168201915b5050505050908060080154908060090154905087565b600080600d6000600e6000815480929190611c74906128be565b9190505581526020019081526020016000209050338160000160006101000a81548173ffffffffffffffffffffffffffffffffffffffff021916908373ffffffffffffffffffffffffffffffffffffffff16021790555085816003019081611cdc9190612b38565b5084816002019081611cee9190612b38565b5042816004018190555083816005019081611d099190612b38565b508281600801819055508281600901819055506001915050949350505050565b606060005b600e54811015611ea15782604051602001611d4991906127c9565b60405160208183030381529060405280519060200120600d6000838152602001908152602001600020600301604051602001611d859190612878565b6040516020818303038152906040528051906020012003611e8e57600d6000828152602001908152602001600020600a01805480602002602001604051908101604052809291908181526020016000905b82821015611e82578382906000526020600020018054611df59061275c565b80601f0160208091040260200160405190810160405280929190818152602001828054611e219061275c565b8015611e6e5780601f10611e4357610100808354040283529160200191611e6e565b820191906000526020600020905b815481529060010190602001808311611e5157829003601f168201915b505050505081526020019060010190611dd6565b50505050915050611edd565b8080611e99906128be565b915050611d2e565b506040517f08c379a0000000000000000000000000000000000000000000000000000000008152600401611ed490612952565b60405180910390fd5b919050565b600073ffffffffffffffffffffffffffffffffffffffff82169050919050565b6000611f0d82611ee2565b9050919050565b611f1d81611f02565b82525050565b600081519050919050565b600082825260208201905092915050565b60005b83811015611f5d578082015181840152602081019050611f42565b60008484015250505050565b6000601f19601f8301169050919050565b6000611f8582611f23565b611f8f8185611f2e565b9350611f9f818560208601611f3f565b611fa881611f69565b840191505092915050565b6000819050919050565b611fc681611fb3565b82525050565b600060e082019050611fe1600083018a611f14565b8181036020830152611ff38189611f7a565b905081810360408301526120078188611f7a565b90506120166060830187611fbd565b81810360808301526120288186611f7a565b905061203760a0830185611fbd565b61204460c0830184611fbd565b98975050505050505050565b6000604051905090565b600080fd5b600080fd5b600080fd5b600080fd5b7f4e487b7100000000000000000000000000000000000000000000000000000000600052604160045260246000fd5b6120a682611f69565b810181811067ffffffffffffffff821117156120c5576120c461206e565b5b80604052505050565b60006120d8612050565b90506120e4828261209d565b919050565b600067ffffffffffffffff8211156121045761210361206e565b5b61210d82611f69565b9050602081019050919050565b82818337600083830152505050565b600061213c612137846120e9565b6120ce565b90508281526020810184848401111561215857612157612069565b5b61216384828561211a565b509392505050565b600082601f8301126121805761217f612064565b5b8135612190848260208601612129565b91505092915050565b6000602082840312156121af576121ae61205a565b5b600082013567ffffffffffffffff8111156121cd576121cc61205f565b5b6121d98482850161216b565b91505092915050565b60006020820190506121f76000830184611f14565b92915050565b60006020820190506122126000830184611fbd565b92915050565b600081519050919050565b600082825260208201905092915050565b6000819050602082019050919050565b600082825260208201905092915050565b600061226082611f23565b61226a8185612244565b935061227a818560208601611f3f565b61228381611f69565b840191505092915050565b600061229a8383612255565b905092915050565b6000602082019050919050565b60006122ba82612218565b6122c48185612223565b9350836020820285016122d685612234565b8060005b8581101561231257848403895281516122f3858261228e565b94506122fe836122a2565b925060208a019950506001810190506122da565b50829750879550505050505092915050565b6000602082019050818103600083015261233e81846122af565b905092915050565b600060208201905081810360008301526123608184611f7a565b905092915050565b600081519050919050565b600082825260208201905092915050565b6000819050602082019050919050565b61239d81611fb3565b82525050565b60006123af8383612394565b60208301905092915050565b6000602082019050919050565b60006123d382612368565b6123dd8185612373565b93506123e883612384565b8060005b8381101561241957815161240088826123a3565b975061240b836123bb565b9250506001810190506123ec565b5085935050505092915050565b6000602082019050818103600083015261244081846123c8565b905092915050565b600081519050919050565b600082825260208201905092915050565b6000819050602082019050919050565b61247d81611f02565b82525050565b600061248f8383612474565b60208301905092915050565b6000602082019050919050565b60006124b382612448565b6124bd8185612453565b93506124c883612464565b8060005b838110156124f95781516124e08882612483565b97506124eb8361249b565b9250506001810190506124cc565b5085935050505092915050565b6000602082019050818103600083015261252081846124a8565b905092915050565b61253181611fb3565b811461253c57600080fd5b50565b60008135905061254e81612528565b92915050565b6000806000806080858703121561256e5761256d61205a565b5b600085013567ffffffffffffffff81111561258c5761258b61205f565b5b6125988782880161216b565b945050602085013567ffffffffffffffff8111156125b9576125b861205f565b5b6125c58782880161216b565b93505060406125d68782880161253f565b925050606085013567ffffffffffffffff8111156125f7576125f661205f565b5b6126038782880161216b565b91505092959194509250565b6000602082840312156126255761262461205a565b5b60006126338482850161253f565b91505092915050565b600080600080608085870312156126565761265561205a565b5b600085013567ffffffffffffffff8111156126745761267361205f565b5b6126808782880161216b565b945050602085013567ffffffffffffffff8111156126a1576126a061205f565b5b6126ad8782880161216b565b935050604085013567ffffffffffffffff8111156126ce576126cd61205f565b5b6126da8782880161216b565b92505060606126eb8782880161253f565b91505092959194509250565b60008115159050919050565b61270c816126f7565b82525050565b60006020820190506127276000830184612703565b92915050565b7f4e487b7100000000000000000000000000000000000000000000000000000000600052602260045260246000fd5b6000600282049050600182168061277457607f821691505b6020821081036127875761278661272d565b5b50919050565b600081905092915050565b60006127a382611f23565b6127ad818561278d565b93506127bd818560208601611f3f565b80840191505092915050565b60006127d58284612798565b915081905092915050565b60008190508160005260206000209050919050565b600081546128028161275c565b61280c818661278d565b94506001821660008114612827576001811461283c5761286f565b60ff198316865281151582028601935061286f565b612845856127e0565b60005b8381101561286757815481890152600182019150602081019050612848565b838801955050505b50505092915050565b600061288482846127f5565b915081905092915050565b7f4e487b7100000000000000000000000000000000000000000000000000000000600052601160045260246000fd5b60006128c982611fb3565b91507fffffffffffffffffffffffffffffffffffffffffffffffffffffffffffffffff82036128fb576128fa61288f565b5b600182019050919050565b7f50726f64756374206e6f7420666f756e64000000000000000000000000000000600082015250565b600061293c601183611f2e565b915061294782612906565b602082019050919050565b6000602082019050818103600083015261296b8161292f565b9050919050565b7f4e487b7100000000000000000000000000000000000000000000000000000000600052603260045260246000fd5b60006020601f8301049050919050565b600082821b905092915050565b6000600883026129ee7fffffffffffffffffffffffffffffffffffffffffffffffffffffffffffffffff826129b1565b6129f886836129b1565b95508019841693508086168417925050509392505050565b6000819050919050565b6000612a35612a30612a2b84611fb3565b612a10565b611fb3565b9050919050565b6000819050919050565b612a4f83612a1a565b612a63612a5b82612a3c565b8484546129be565b825550505050565b600090565b612a78612a6b565b612a83818484612a46565b505050565b5b81811015612aa757612a9c600082612a70565b600181019050612a89565b5050565b601f821115612aec57612abd816127e0565b612ac6846129a1565b81016020851015612ad5578190505b612ae9612ae1856129a1565b830182612a88565b50505b505050565b600082821c905092915050565b6000612b0f60001984600802612af1565b1980831691505092915050565b6000612b288383612afe565b9150826002028217905092915050565b612b4182611f23565b67ffffffffffffffff811115612b5a57612b5961206e565b5b612b64825461275c565b612b6f828285612aab565b600060209050601f831160018114612ba25760008415612b90578287015190505b612b9a8582612b1c565b865550612c02565b601f198416612bb0866127e0565b60005b82811015612bd857848901518255600182019150602085019450602081019050612bb3565b86831015612bf55784890151612bf1601f891682612afe565b8355505b6001600288020188555050505b505050505050565b6000612c1582611fb3565b9150612c2083611fb3565b9250828203905081811115612c3857612c3761288f565b5b9291505056fea2646970667358221220985e1e4547bf5e5128b2d11b0c9350ca727fdaac44ae041d7a7a9a907f39709a64736f6c63430008120033",
  "linkReferences": {},
  "deployedLinkReferences": {}
}